:100000000C9460190C9491190C9491190C949119F9
:100010000C9491190C9491190C9491190C949119B8
:100020000C9491190C9491190C9491190C949119A8
:100030000C9491190C94C23E0C9491190C94911942
:100040000C9491190C94E0630C9491190C949119EF
:100050000C9491190C9491190C94F0C00C9429B241
:100060000C9491190C947DEB0C9491190C949119AA
:100070000C9491190C9491190C9491190C94911958
:100080000C9491190C9491190C9491190C94911948
:100090000C9491190C9491190C9491190C94911938
:1000A0000C9491190C9491190C9491190C94911928
:1000B0000C9491190C9491190C9491190C94911918
:1000C0000C9491190C9491190C9491190C94911908
:1000D0000C9491190C9491190C9491190C949119F8
:1000E0000C949119905B995BA35BAC5BB55BD05BA7
:1000F000DD5BE65BBE5BC75BA6B0A9B098B09CB009
:10010000A2B0E0B0ADB0B1B0B7B0BBB0BFB0C5B099
:10011000C9B0CDB0E0B0D3B0D7B0DBB045B14AB1D3
:100120004FB159B163B1DCB16DB175B17DB187B17A
:1001300091B19BB1AAB1B4B1DCB1BEB1C8B1D2B179
:1001400005A84CCDB2D44EB93836A9020C50B9919D
:100150008688083CA6AAAA2ABE000000803F0D940B
:10016000200B0D94590B4E414E494E495459494E5E
:1001700046CDCCCC3D0AD7233C17B7D13877CC2B12
:10018000329595E6241FB14F0A000020410000C8B7
:100190004200401C4620BCBE4CCA1B0E5AAEC59D38
:1001A00074434F4D4D554E49434154494F4E0044C1
:1001B000525952554E004552524F525300494E46E5
:1001C0004F004543484F00536C6565702E2E2E003E
:1001D000206F6620004D424C2047323920706F69F5
:1001E0006E74200059206F7574206F662072616EE6
:1001F00067652028312D33292E0A0058206F757429
:10020000206F662072616E67652028312D33292E9C
:100210000A004D6573682070726F62696E672064B2
:100220006F6E652E0A005374617274206D65736879
:100230002070726F62696E67207769746820224748
:100240003239205331222066697273742E0A0047B6
:1002500032380A473239205332004732392053327C
:100260000053746174653A20004D657368206265BF
:1002700064206C6576656C696E6720686173206EBA
:100280006F20646174612E0A0053206F7574206FB3
:10029000662072616E67652028302D35292E0A0090
:1002A0004D65736820706F696E742063616E6E6F48
:1002B00074206265207265736F6C7665640A005203
:1002C0006573756D696E67207072696E74004A4758
:1002D0004175726F72612041352072656164792EBB
:1002E00000436C69636B20746F20726573756D6574
:1002F0002E2E2E004E6F206D6F76652E00456E649B
:100300002066696C65206C6973740A0042656769D0
:100310006E2066696C65206C6973740A004D313219
:1003200035005344207072696E74696E672062797B
:10033000746520004E6F74205344207072696E748F
:10034000696E670A0046696C652064656C65746552
:10035000643A0044656C6574696F6E206661696C0F
:1003600065642C2046696C653A20006F70656E20CC
:100370006661696C65642C2046696C653A200050A2
:1003800072696E742074696D653A200050726F74E2
:1003900065637465642050696E0A006F6E2E0A00F2
:1003A0006F66662E0A004732362044656275672004
:1003B00000452569202573004A474175726F7261B7
:1003C0002041352072656164792E00C201BD01B6FD
:1003D00001AF01A1016F66660044454255473A00EE
:1003E0004B494C4C45442E20006F6B004265642005
:1003F000646F6E652E0020573A00426564204865A0
:100400006174696E672E002F2F200066696C616D24
:10041000656E743A20007A5F6D696E3A2000795FEC
:100420006D696E3A2000785F6D696E3A2000526502
:10043000706F7274696E6720656E6473746F70207C
:100440007374617475730A004D31343520533C69FF
:100450006E6465783E206F7574206F662072616EE1
:1004600067652028302D31290A0053657474696E40
:10047000672054726176656C20416363656C6572B8
:100480006174696F6E3A200053657474696E6720F9
:100490005265747261637420416363656C65726157
:1004A00074696F6E3A200053657474696E672050EA
:1004B00072696E7420416363656C65726174696F03
:1004C0006E3A200053657474696E67205072696ECD
:1004D0007420616E642054726176656C20416363A0
:1004E000656C65726174696F6E3A2000205A002055
:1004F0005900580020204D61783A2000205A0020F1
:100500005900580020204D696E3A20004F6E20009F
:100510004F666600536F667420656E6473746F7007
:10052000733A2000000136372603FF3C3D380EFFAA
:100530002E303E12FFFF0C080907FFFF1A1C18FFA0
:10054000FF08440AFF43FFFFFFFFFFFF20643A005C
:1005500020693A0020703A0043290A0061626C6504
:100560006420286D696E2074656D702000436F6C87
:10057000642065787472756465732061726520000B
:100580004F66660A0046616465204865696768745D
:100590002000426564204C6576656C696E672000BA
:1005A0004661696C656420746F20656E61626C657C
:1005B00020426564204C6576656C696E670A004D63
:1005C00065736820426564204C6576656C206461C3
:1005D00074613A0A004D65736820706F696E74200B
:1005E00063616E6E6F74206265207265736F6C76E6
:1005F00065640A004D34323120696E636F72726532
:10060000637420706172616D6574657220757361C9
:1006100067650A004F666673657473206170706C5D
:10062000696564004572723A20546F6F206661728A
:100630002100546F6F206661722066726F6D2072A8
:1006400065666572656E636520706F696E740A0019
:100650004E6F2063617365206C696768740A00419E
:1006600063746976652045787472756465723A20A2
:1006700000556E6B6E6F776E20636F6D6D616E648B
:100680003A2022004D6573682056616C696461747C
:10069000696F6E2053746F707065642E00696E20F0
:1006A0006D6F76655F746F282920666565645F7677
:1006B000616C756520666F722058593A004C65610F
:1006C00076696E67204732360047323620486561CA
:1006D00074696E67204E6F7A7A6C652E00473236E9
:1006E0002048656174696E67204265642E00446F1E
:1006F0006E65205072696D696E6700446F6E65208B
:100700005072696D696E67004669786564204C6552
:100710006E677468205072696D652E00557365723E
:100720002D436F6E74726F6C6C6564205072696DCE
:1007300065002C2065793D0029202D3E2028657814
:100740003D002C2073793D0020436F6E6E6563740D
:10075000696E672077697468207665727469636171
:100760006C206C696E65202873783D002C206579BB
:100770003D0029202D3E202865783D002C207379EE
:100780003D0020436F6E6E656374696E6720776904
:10079000746820686F72697A6F6E74616C206C691E
:1007A0006E65202873783D004C656176696E672020
:1007B000473236002C2079693D00202020446F69A3
:1007C0006E6720636972636C652061743A202878D3
:1007D000693D003F53706563696669656420582C04
:1007E0005920636F6F7264696E617465206F7574F0
:1007F000206F6620626F756E64732E0A003F285268
:100800002965706561742076616C7565206E6F7402
:1008100020706C61757369626C653B206D757374D3
:10082000206265206174206C6561737420312E0A2A
:10083000003F537065636966696564206E6F7A7AFC
:100840006C652074656D7065726174757265206E7B
:100850006F7420706C61757369626C652E0A003F5D
:100860005370656369666965642066696C616D656E
:100870006E742073697A65206E6F7420706C617578
:100880007369626C652E0A003F537065636966691F
:100890006564207072696D65206C656E6774682090
:1008A0006E6F7420706C61757369626C652E0A00DE
:1008B0003F537065636966696564206E6F7A7A6C10
:1008C000652073697A65206E6F7420706C61757332
:1008D00069626C652E0A003F5370656369666965DD
:1008E000642052657472616374696F6E204D756C1B
:1008F0007469706C696572206E6F7420706C6175BC
:100900007369626C652E0A003F526574726163748C
:10091000696F6E204D756C7469706C696572206DBD
:1009200075737420626520737065636966696564B8
:100930002E0A003F537065636966696564206C61C7
:1009400079657220686569676874206E6F742070BD
:100950006C61757369626C652E0A003F5370656344
:100960006966696564206265642074656D7065728E
:100970006174757265206E6F7420706C6175736937
:10098000626C652E0A0047323620636F6D6D616EB2
:100990006420737461727465642E20576169746990
:1009A0006E6720666F7220686561746572287329AE
:1009B0002E0A0000002200250028002B002E003106
:1009C00000340002010000050108010B01000020B5
:1009D000002300260029002C002F00320000010017
:1009E00000030106010901050505050705080808BA
:1009F00008020202020A0A080804040404010101B0
:100A000001010101010303030303030303040707B7
:100A1000070C0C0C0C0C0C0C0C0202020206060655
:100A200006060606060B0B0B0B0B0B0B0B0102103D
:100A300020200808102040102040800201020108F8
:100A400004020101020408102040808040201008A8
:100A50000402018004020180402010080402010801
:100A60000402010102040810204080010204081061
:100A700020408000000A0B02090C0D0E0807030439
:100A80000100000000000000000000000000000065
:100A90000000000000000000000000000000001244
:100AA0001110000000000000000000000000000025
:100AB000000000000000000000024B494C4C45447F
:100AC0002E2000202D20496E76616C6964206578A7
:100AD000747275646572206E756D62657220210A8C
:100AE000001FFFFFFFFFFFFF600000000001FF404D
:100AF0000000000000FF8000000000007F83CF00A6
:100B0000000C303F87FF80000C301F867980000C7E
:100B1000000F8C30C7838C30E78C30CFC7CC31F3DB
:100B20008C30DCECEC33B98C30D86C6C33198C30F5
:100B3000D06C0C33198C30D86C0C33198C30DC6CC5
:100B40000E3B198C30CF7C079F198C30C77C038FEC
:100B50001940000000000002600000000000061FB5
:100B6000FFFFFFFFFFF82020506C616E6E65724240
:100B7000756666657242797465733A200020467224
:100B80006565204D656D6F72793A2000436F6D7019
:100B9000696C65643A204A616E2031302032303110
:100BA000380A00207C20417574686F723A202854FE
:100BB000656C6C69204D616E74656C6C692C204BA2
:100BC000726973205761636C6177736B692C205372
:100BD000616D75656C2050696E63686573202620B1
:100BE0004D69636861656C2047696C617264692C4A
:100BF0002039204A616E2032303138290A003230E3
:100C000031372D31322D32352031323A303000201B
:100C10004C61737420557064617465643A200031CE
:100C20002E312E380A004D61726C696E0020536FB0
:100C30006674776172652052657365740A00205787
:100C400061746368646F672052657365740A00207D
:100C500042726F776E206F75742052657365740AE7
:100C6000002045787465726E616C205265736574FE
:100C70000A00506F77657255700A00737461727460
:100C80000A006572726F722077726974696E6720EC
:100C9000746F2066696C650A00456E6473746F70CA
:100CA0007320256320256320256320256300205AB7
:100CB0003A0020593A0020583A00656E6473746F08
:100CC0007073206869743A2000446F6E6520736108
:100CD00076696E672066696C652E0A004D323900B0
:100CE000486F6D65202573257325732066697273BF
:100CF00074002066697273740A005A005900580023
:100D0000486F6D65200053442063617264206F6BEF
:100D10000A006F70656E526F6F74206661696C6552
:100D2000640A00766F6C756D652E696E6974206655
:100D300061696C65640A00534420696E69742066B9
:100D400061696C0A004572726F722077726974690A
:100D50006E6720746F20454550524F4D210A00297F
:100D60000A002062797465733B206372632000532C
:100D7000657474696E67732053746F72656420289C
:100D80000020204E6F7A7A6C653A20002000506C6B
:100D90006561736520776169742E2E2E0048656148
:100DA00074696E67206E6F7A7A6C65005052494E96
:100DB00054205041555345440020204E6F7A7A6CA0
:100DC000653A2000200068656174206E6F7A7A6C45
:100DD000652E00507265737320627574746F6E2097
:100DE000746F005052494E542050415553454400B1
:100DF00020204E6F7A7A6C653A2000746F20636F02
:100E00006E74696E75652E2E2E00616E6420707290
:100E100065737320627574746F6E00496E736572CA
:100E2000742066696C616D656E74005052494E5451
:100E3000205041555345440020204E6F7A7A6C650E
:100E40003A2000200066696C616D656E74206C6FDD
:100E50006164005761697420666F72005052494E98
:100E600054205041555345440020204E6F7A7A6CEF
:100E7000653A2000200066696C616D656E742065BE
:100E8000787472756465005761697420666F7200CA
:100E90005052494E542050415553454400746F20E0
:100EA000726573756D65005761697420666F722095
:100EB0007072696E74005052494E5420504155531F
:100EC000454400206E6F7420656E74657265642EF3
:100ED0000A000A4D6561737572656420706F696EF2
:100EE00074733A0A005A206F66667365743A20007C
:100EF0004E756D20582C593A20332C330A006D0062
:100F000046696C616D656E7420757365643A200086
:100F100053746174733A20002C204C6F6E676573B4
:100F200074206A6F623A2000546F74616C20746997
:100F30006D653A200053746174733A20002C20468A
:100F400061696C65643A20002C2046696E6973689B
:100F500065643A20005072696E74733A20005374CD
:100F60006174733A200048656174696E6720646F2C
:100F70006E652E0020573A00452569202573004AEA
:100F8000474175726F7261204135207265616479E5
:100F90002E004D3131332053004A474175726F7234
:100FA00061204135204F66662E0024F4D43050C3B2
:100FB0008E20C2A24017828B7011127A910D816C23
:100FC000D90AA861E108C7586607615143061E4B5C
:100FD0005D05C145A7041A411104093D9803713903
:100FE00031034036DB0265339102D4305402802E47
:100FF0001D02632CEE01752AC501B028A00110273F
:1010000081018F2564012B244B01E0223401AC21A6
:101010001F018D200D01801FFC00841EED00971D17
:10102000DF00B81CD200E61BC600201BBC00641AFF
:10103000B200B219A8000A19A0006A189900D117C5
:10104000910040178B00B516840031167E00B31551
:1010500079003A157300C7146F0058146A00EE1334
:1010600066008813630025135E00C7125B006C12D4
:10107000570015125400C111510070114F00211179
:101080004B00D61049008D10470046104400021056
:101090004200C00F4000800F3E00420F3C00060F90
:1010A0003B00CB0E3800930E37005C0E3500270E48
:1010B0003400F30D3200C10D3100900D3000600D91
:1010C0002E00320D2D00050D2C00D90C2B00AE0C7E
:1010D0002900850C29005C0C2700350C27000E0C1C
:1010E0002600E80B2400C40B2400A00B23007D0B7A
:1010F00023005A0B2100390B2100180B2000F80A9D
:101100001F00D90A1E00BB0A1E009D0A1D00800A8E
:101110001D00630A1C00470A1B002C0A1B00110A51
:101120001A00F7091A00DD091900C4091900AB09F2
:101130001900920917007B091800630917004C0970
:10114000160036091600200916000A091500F508D0
:101150001500E0081400CC081400B8081400A40816
:101160001400900813007D0812006B081300580843
:10117000120046081200340811002308110012085A
:10118000110001081100F0071000E0071000D0075F
:101190001000C0071000B0070F00A1071000910752
:1011A0000E0083070F0074070F0065070E00570736
:1011B0000E0049070E003B070D002E070E0020070A
:1011C0000D0013070D0006070D00F9060C00ED06D3
:1011D0000D00E0060C00D4060C00C8060C00BC068E
:1011E0000C00B0060C00A4060B0099060C008D063E
:1011F0000B0082060B0077060B006C060B006106E5
:101200000A0057060B004C060A0042060A00380680
:101210000A002E060A0024060A001A060A00100612
:10122000090007060A00FD050900F4050900EB05A1
:101230000900E2050900D9050900D0050900C70524
:101240000900BE050900B5050800AD050800A505A3
:1012500009009C050800940508008C050800840519
:1012600008007C050800740508006C05070065058A
:1012700008005D050700560508004E0507004705F4
:1012800007004005080038050700310507002A055A
:101290000700230507001C050600160507000F05BB
:1012A00007000805060002050700FB040600F50418
:1012B0000700EE040600E8040600E2040700DB0471
:1012C0000600D5040600CF040600C9040600C304C6
:1012D0000600BD040600B7040600B1040500AC0416
:1012E0000600A6040600A00405009B040600950461
:1012F0000500900406008A040500850405008004AA
:1013000006007A04050075040500700405006B04EE
:10131000050066040500610405005C04050057042F
:101320000500520405004D0405004804050043046F
:1013300005003E0404003A040500350405003004AD
:1013400004002C04050027040400230405001E04E7
:1013500004001A04040016040500110404000D041E
:101360000400090405000404040000040400FC0354
:101370000400F8030400F4030400F0030400EC0389
:101380000400E8030400E4030400E0030400DC03B9
:101390000400D8030400D4030400D0030400CC03E9
:1013A0000400C8030300C503030024F404D9201B70
:1013B000C40C5C0E9804C4095F0265077101F40552
:1013C000F900FB04B30048048700C1036900580317
:1013D000550003034500BE023A0084023100530267
:1013E0002A002902250004022000E4011C00C80193
:1013F0001900AF0117009801140084011300710156
:1014000010006101100051010E0043010D00360172
:101410000B002B010B0020010B00150109000C0132
:10142000090003010800FB000800F3000800EB00BE
:101430000700E4000600DE000600D8000600D20027
:101440000600CC000500C7000500C2000500BD0075
:101450000400B9000400B5000400B1000400AD00B0
:101460000400A9000400A5000300A20003009F00DF
:1014700004009B0003009800030095000200930005
:101480000300900003008D0002008B000300880021
:1014900002008600020084000300810002007F0039
:1014A00002007D0002007B0002007900020077004C
:1014B0000100760002007400020072000100710059
:1014C00002006F0002006D0001006C0002006A0063
:1014D000010069000200670001006600010065006C
:1014E0000100640002006200010061000100600070
:1014F00001005F0002005D0001005C0001005B0074
:1015000001005A0001005900010058000100570075
:101510000100560001005500010054000100530075
:101520000000530001005200010051000100500072
:1015300001004F0001004E0000004E0001004D0070
:1015400001004C0001004B0000004B0001004A006C
:101550000100490001004800000048000100470068
:101560000100460000004600010045000000450063
:10157000010044000100430000004300010042005C
:101580000000420001004100000041000100400055
:1015900001003F0000003F0001003E0000003E004F
:1015A00001003D0000003D0001003C0000003C0047
:1015B00000003C0001003B0000003B0001003A003D
:1015C00000003A0001003900000039000100380035
:1015D000000038000000380001003700000037002C
:1015E0000100360000003600000036000100350022
:1015F0000000350000003500010034000000340018
:10160000000034000100330000003300000033000C
:101610000100320000003200000032000100310001
:1016200000003100000031000100300000003000F7
:101630000000300001002F0000002F0000002F00EC
:1016400000002F0001002E0000002E0000002E00E0
:1016500001002D0000002D0000002D0000002D00D5
:1016600001002C0000002C0000002C0000002C00C9
:1016700001002B0000002B0000002B0000002B00BD
:1016800001002A0000002A0000002A0000002A00B1
:1016900001002900000029000000290000002900A5
:1016A0000000290001002800000028000000280098
:1016B000000028000000280001002700000027008B
:1016C000000027000000270000002700010026007E
:1016D0000000260000002600000026000000260072
:1016E0000100250000002500000025000000250065
:1016F0000000250000002500010024000000240057
:101700000000240000002400000024000100230049
:10171000000023000000230000002300000023003D
:10172000000023000000230001002200000022002E
:101730000000220000002200000022000000220021
:101740000100210000002100000021000000210014
:101750000000210000002100000021000100200005
:1017600000002000000020000000200000002000F9
:1017700000002000000020000000200001001F00E9
:1017800000001F0000001F0000001F0000001F00DD
:1017900000001F0000001F0001001E0000001E00CE
:1017A00000001E0000001E0000004D3834205820AC
:1017B00059205A20450070012C0190012701B001E9
:1017C0002201C0011D01F0011801100213013002B5
:1017D0000E016002090190020401C002FF00000333
:1017E000FA004003F5008003F000D003EB00200472
:1017F000E6007004E100E004DC004005D700C0050D
:10180000D2004006CD00D006C8008007C3003008D3
:10181000BE00F008B900C009B400B00AAF00B00BB8
:10182000AA00D00CA500000EA000500F9B00C01015
:1018300096005012910000148C00C0158700B0175C
:101840008200B0197D00D01B7800001E730040207C
:101850006E0090226900F024640040275F00902908
:101860005A00E02B5500102E500020304B00103253
:101870004600E033410090353C00103737007038A7
:101880003200A0392D00B03A2800A03B2300603C74
:101890001E00103D1900903D1400103E0F00703ED8
:1018A0000A00C03E0500003F0000403FFBFF803FB4
:1018B000F6FFC03FF1FF202F002042403A002040B9
:1018C0003A00496E697469616C697A6520454550D2
:1018D000524F4D00436F6E74726F6C00526573749B
:1018E0006F7265206661696C73616665004C6F613B
:1018F000642073657474696E677300496E697469F6
:10190000616C697A6520454550524F4D0053746FA4
:1019100072652073657474696E67730046696C61E3
:101920006D656E74004D6F74696F6E0054656D70F7
:1019300065726174757265004D61696E004D33307A
:1019400033205531204525692053256900507265A3
:10195000686561742041425320636F6E6600507267
:10196000656865617420504C4120636F6E6600505D
:101970004944204175746F74756E65005049442068
:101980004175746F74756E65005049442D44005064
:1019900049442D44005049442D49005049442D49A3
:1019A000005049442D50005049442D50002008203B
:1019B000466163740020082046616374002008209B
:1019C0004D6178002008204D6178002008204D618D
:1019D00078002008204D696E002008204D696E00B7
:1019E0002008204D696E004F6666004F6E20004152
:1019F00075746F74656D700046616E2073706565F7
:101A00006420320046616E20737065656420320088
:101A100046616E20737065656420320046616E20F9
:101A2000737065656420310046616E207370656572
:101A30006420310046616E2073706565642031005A
:101A400042656400426564004E6F7A7A6C65004EB0
:101A50006F7A7A6C6500436F6E74726F6C005374AA
:101A60006F72652073657474696E67730042656494
:101A70000042656400426564004E6F7A7A6C6500CE
:101A80004E6F7A7A6C65004E6F7A7A6C65004661AB
:101A90006E2073706565640046616E2073706565C5
:101AA000640046616E2073706565640054656D70F6
:101AB0006572617475726500202863616C63756C72
:101AC0006174656429210A0020213D2000454550AC
:101AD000524F4D20435243206D69736D61746368AA
:101AE000202D202873746F726564292000290A0054
:101AF0002062797465733B206372632000207374E5
:101B00006F7265642073657474696E6773207265A3
:101B100074726965766564202800204D61726C6975
:101B20006E3D563437290A0028454550524F4D3DE9
:101B300000454550524F4D2076657273696F6E2097
:101B40006D69736D61746368200048617264636FCE
:101B50006465642044656661756C742053657474B3
:101B6000696E6773204C6F616465640A00E8030066
:101B700000F401000064000000881300000000FA77
:101B8000430000FA43000070410000C8410000A07B
:101B9000420000A042000048440000C84256652DA3
:101BA0006A65726B0056652D6A65726B0056652D0D
:101BB0006A65726B00567A2D6A65726B00567A2DD3
:101BC0006A65726B0056792D6A65726B0056792DC5
:101BD0006A65726B0056792D6A65726B0056782DB6
:101BE0006A65726B0056782D6A65726B0056782DA7
:101BF0006A65726B004D6F74696F6E004573746532
:101C000070732F6D6D004573746570732F6D6D006B
:101C10005A73746570732F6D6D005A7374657073A9
:101C20002F6D6D005973746570732F6D6D0059734E
:101C3000746570732F6D6D005873746570732F6DBC
:101C40006D005873746570732F6D6D004D6F7469FE
:101C50006F6E0053746570732F6D6D004A65726B03
:101C600000416363656C65726174696F6E005665EF
:101C70006C6F6369747900436F6E74726F6C0046A9
:101C8000696C2E204469612E0046696C2E204469DF
:101C9000612E004F6666004F6E20004520696E2061
:101CA0006D6D3300436F6E74726F6C0043616E6EC6
:101CB0006F7420656E746572207375626469723A20
:101CC0002000022E2E004D61696E0050726568651D
:101CD000617420504C4120456E6400507265686507
:101CE000617420504C412042656400507265686503
:101CF000617420504C4100507265706172650050F3
:101D00007265686561742041425320456E640050DD
:101D100072656865617420414253204265640050D9
:101D2000726568656174204142530050726570614C
:101D30007265004261636B004E65787420636F7258
:101D40006E6572004C6576656C696E6720446F6ED7
:101D50006521004D6F7665205A0047323920533295
:101D6000004E65787420506F696E74002569202FCD
:101D7000202575004732392053310047323920532E
:101D80003200436C69636B20746F20426567696E33
:101D900000486F6D696E672058595A004732380005
:101DA00053746F72652073657474696E6773004C49
:101DB0006F61642073657474696E6773004C657637
:101DC000656C20636F726E657273004C6576656C2E
:101DD0002062656400426564205A00426564205AAE
:101DE00000466164652048656967687400466164FF
:101DF0006520486569676874004F6666004F6E200D
:101E000000426564204C6576656C696E67005072AF
:101E1000657061726500627573793A2070617573DF
:101E2000656420666F7220696E7075740A00627551
:101E300073793A2070617573656420666F722075DE
:101E40007365720A00627573793A2070726F636508
:101E50007373696E670A004D363030004B494C4C45
:101E600045442E20004B494C4C20636175736564DA
:101E7000206279204B494C4C20627574746F6E2F30
:101E800070696E0A004B494C4C45442E20004B496A
:101E90004C4C2063617573656420627920746F6FA8
:101EA000206D75636820696E61637469766520745E
:101EB000696D65202D2063757272656E7420636F85
:101EC0006D6D616E643A2000506C656173652072BF
:101ED00065736574005052494E5445522048414C38
:101EE000544544005072696E7465722068616C7468
:101EF00065642E206B696C6C28292063616C6C65AD
:101F000064210A0000000000000000000000000042
:101F10000000A0420000A04200004041000000007C
:101F20005761726E696E673A20486F6D696E6720FF
:101F300042756D702044697669736F72203C203160
:101F40000A000A0A060000A0400000A040000000AD
:101F50004000809843008098430000A043FFFFFFAB
:101F60004D36303020486F74656E6420746F6F207A
:101F7000636F6C6420746F206368616E67652066B0
:101F8000696C616D656E740A00205A3A0020593AF6
:101F90000020436F756E7420583A0020453A0020A7
:101FA0005A3A0020593A00583A003A004361703AD0
:101FB00000454D455247454E43595F5041525345A8
:101FC0005200434153455F4C494748545F42524990
:101FD0004748544E45535300544F47474C455F4C78
:101FE000494748545300534F4654574152455F5058
:101FF0004F574552004255494C445F504552434566
:102000004E54004C4556454C494E475F444154415F
:10201000005A5F50524F4245004155544F4C45566F
:10202000454C005052494E545F4A4F420050524F67
:102030004752455353004155544F5245504F525407
:102040005F54454D5000564F4C554D4554524943F1
:1020500000454550524F4D0053455249414C5F5841
:102060004F4E5F584F4646004649524D57415245E4
:102070005F4E414D453A4D61726C696E20312E3193
:102080002E3820284769746875622920534F5552AD
:1020900043455F434F44455F55524C3A68747470F2
:1020A000733A2F2F6769746875622E636F6D2F4DB9
:1020B00061726C696E4669726D776172652F4D61F0
:1020C000726C696E2050524F544F434F4C5F5645CF
:1020D0005253494F4E3A312E30204D414348494EDC
:1020E000455F545950453A4A474175726F726120B5
:1020F00041352045585452554445525F434F554E43
:10210000543A3120555549443A6365646532613229
:10211000662D343161322D343734382D3962313205
:102120002D6335356336326633363766660A0023EB
:10213000646566696E65202044454641554C545F90
:102140004B64200023646566696E65202044454623
:1021500041554C545F4B69200023646566696E6588
:10216000202044454641554C545F4B702000504957
:1021700044204175746F74756E652066696E69736D
:10218000686564212050757420746865206C6173E3
:1021900074204B702C204B6920616E64204B6420AE
:1021A000636F6E7374616E74732066726F6D2062FC
:1021B000656C6F7720696E746F20436F6E66696718
:1021C00075726174696F6E2E680A0050494420412F
:1021D00075746F74756E65206661696C6564212025
:1021E00074696D656F75740A00544845524D414CD1
:1021F0002052554E4157415900546865726D616CCB
:102200002052756E617761790048656174696E6707
:10221000206661696C65640048656174696E672059
:102220006661696C656400504944204175746F743F
:10223000756E65206661696C6564212054656D70FA
:102240006572617475726520746F6F206869676864
:102250000A00204B643A2000204B693A2000204BB2
:10226000703A20000A20436C6173736963205049FF
:1022700044200A002054753A2000204B753A200073
:10228000206D61783A2000206D696E3A200020644C
:102290003A200020626961733A20006175746F25ED
:1022A000692E67004D3234004D32332025730057BC
:1022B000726974696E6720746F2066696C653A2074
:1022C000006F70656E206661696C65642C204669DC
:1022D0006C653A20006F70656E206661696C65649C
:1022E0002C2046696C653A200046696C6520736550
:1022F0006C65637465640A002053697A653A20004E
:1023000046696C65206F70656E65643A20006F7079
:10231000656E206661696C65642C2046696C653A5F
:1023200020002066696C653A2000646F696E670062
:102330006672657368004E6F772000454E442053E7
:102340005542524F5554494E450A002220706F7332
:10235000002220706172656E743A22005355425219
:102360004F5554494E452043414C4C20746172678F
:1023700065743A22004B494C4C45442E200074723F
:1023800079696E6720746F2063616C6C207375626D
:102390002D67636F64652066696C65732077697467
:1023A0006820746F6F206D616E79206C6576656C46
:1023B000732E204D4158206C6576656C2069733A08
:1023C000004572726F723A0043616E6E6F74206FD7
:1023D00070656E20737562646972200025753A25F8
:1023E00030327500253032753A253032750025754A
:1023F0006420253032753A25303275005A00590074
:10240000580009200000000000000000000000004B
:10241000007FFFE00000000000000000000000005E
:102420007000E000000000000000000000000061FB
:10243000F86000000000000000000000000041F80B
:102440002000000000000000000000000040F0201C
:1024500000000000000000000000000040602000BC
:1024600000000000000000000000005801A07F8074
:10247000000000000000004104005C63A0FFC000F9
:102480000000000000002082005EF7A0FFC00000F6
:1024900000000000002082005EF7A0FFC0000000E6
:1024A000000000004104005C63A07F800000000089
:1024B0000000008208005801A07F8000000000009A
:1024C0000001041000406020FFC000000000000078
:1024D0000104100040F020FFC000000000000000D8
:1024E00082080041F820FFC0000000000000004109
:1024F000040061F8603F00000000000000000000E0
:10250000007000E01E0000000000000001FFFF80DE
:102510007FFFE00C0000000000000001FFFF8000D2
:1025200000000000000000000000000000007FFF2D
:10253000E00000000000000000000000007000E06B
:10254000000000000000000000000000630C6000BC
:102550000000000000000000000000470E20000006
:10256000000000000000000000004F0F20000000ED
:102570000000000000000000005F0FA0000000004D
:1025800000000000000000005E07A07F8000000047
:1025900000000000410400406020FFC00000000077
:1025A00000000020820040F020FFC000000000007A
:1025B000000020820040F020FFC00000000000006A
:1025C000004104004060207F800000000000000007
:1025D0008208005E07A07F80000000000000010468
:1025E00010005F0FA0FFC0000000000000010410F9
:1025F000004F0F20FFC00000000000000082080014
:10260000470E20FFC00000000000000041040063EE
:102610000C603F000000000000000000000070009F
:10262000E01E0000000000000001FFFF807FFFE0CF
:102630000C0000000000000001FFFF80000000000F
:10264000060900FE000000000001090008FE00006D
:1026500005080806000040F0C8888898781005082A
:1026600008060000C0F88888888888F805050506EF
:1026700000012030F830200508080600002070F81E
:1026800020202020E00509090600FF2070A8A8B836
:10269000888870200509090600FFE080C0B0A828DE
:1026A0003028280509090600FFF8A8888888888846
:1026B000A8F8050A0A0600FE205050505088A8A825
:1026C000887003030306000340A04000002100249B
:1026D0000027002A002D0030003300010100000413
:1026E0000107010A01436172642072656D6F7665AE
:1026F00064004361726420696E736572746564007E
:1027000000060900FE0701920321207FFF07FF0753
:10271000FF0000000600000107070602008080801D
:1027200080800080030202060105A0A005070706BD
:1027300000005050F850F8505005070706000020E0
:1027400078A07028F020050707060000C0C81020F8
:102750004098180507070600006090A040A8906800
:10276000020303060104C04080030707060100209E
:102770004080808040200307070601008040202021
:1027800020408005050506000120A870A820050549
:10279000050600012020F820200203030602FFC0E6
:1027A0004080050101060003F8020202060200C093
:1027B000C005050506000108102040800507070632
:1027C0000000708888888888700307070601004029
:1027D000C040404040E005070706000070880870D0
:1027E0008080F8050707060000F81020100808F0A0
:1027F00005070706000010305090F8101005070775
:10280000060000F880F00808887005070706000039
:10281000708080F0888870050707060000F80810AF
:10282000202020200507070600007088887088880F
:102830007005070706000070888878080870020590
:1028400005060200C0C000C0C00206060602FFC0A6
:10285000C000C040800407070600001020408040F0
:102860002010050303060002F800F804070706011C
:102870000080402010204080050707060000708877
:10288000081020002005070706000070880868A8C7
:10289000A870050707060000708888F888888805F2
:1028A0000707060000F08888F08888F0050707060B
:1028B000000070888080808870050707060000F09F
:1028C0008888888888F0050707060000F88080F06F
:1028D0008080F8050707060000F88080F08080807F
:1028E000050707060000708880B88888700507070C
:1028F000060000888888F888888801070706020093
:1029000080808080808080050707060000381010D6
:10291000101090600507070600008890A0C0A090E6
:1029200088050707060000808080808080F8050702
:102930000706000088D8A888888888050707060049
:10294000008888C8A898888805070706000070884E
:102950008888888870050707060000F08888F0805E
:10296000808005070706000070888888A8906805A1
:102970000707060000F08888F0A090880507070682
:102980000000788080700808F0050707060000F84E
:10299000202020202020050707060000888888883E
:1029A0008888700507070600008888888888502076
:1029B0000507070600008888888888A8500507074B
:1029C0000600008888502050888805070706000008
:1029D00088888850202020050707060000F8081086
:1029E000204080F8030707060100E0808080808097
:1029F000E0050505060001804020100803070706D2
:102A00000100E02020202020E00503030600042030
:102A10005088050101060000F80202020602058046
:102A20004005050506000070087888780507070648
:102A300000008080B0C88888F00505050600007099
:102A40008080887005070706000008086898888855
:102A5000780505050600007088F8807005070706F0
:102A600000003048E0404040400506060600FF7088
:102A700088887808700507070600008080B0C8883D
:102A8000888801070706020080008080808080031C
:102A900008080601FF200020202020A0400407078E
:102AA000060000808090A0C0A090030707060100E8
:102AB000C04040404040E0050505060000D0A8A801
:102AC000A8A8050505060000B0C888888805050582
:102AD00006000070888888700506060600FFF088EA
:102AE00088F080800506060600FF78888878080848
:102AF000050505060000B0C88080800505050600B4
:102B00000070807008F00407070600004040E040B5
:102B1000404030050505060000888888986805054E
:102B200005060000888888502005050506000088F5
:102B300088A8A85005050506000088502050880583
:102B400006060600FF8888887808700505050600D7
:102B500000F8102040F803070706010020404080DD
:102B6000404020010707060200808080808080802E
:102B70000307070601008040402040408005020214
:102B800006000268900000000600006265640A000A
:102B90002C2073797374656D2073746F7070656425
:102BA00021204865617465725F49443A2000486598
:102BB0006174696E67206661696C6564004865616F
:102BC00074696E67206661696C656400486561744C
:102BD000696E67206661696C656400486561746947
:102BE0006E67206661696C656400544845524D41CA
:102BF0004C2052554E4157415900546865726D61E1
:102C00006C2052756E61776179004572723A204D81
:102C1000494E54454D5020424544004572723A2079
:102C20004D494E54454D50004D494E54454D502050
:102C3000747269676765726564004572723A204D07
:102C4000415854454D5020424544004572723A2047
:102C50004D415854454D50004D415854454D50201C
:102C60007472696767657265640020746F6F206CA9
:102C70006F6E6720657874727573696F6E207072FD
:102C80006576656E7465640A0020636F6C64206508
:102C90007874727573696F6E2070726576656E7484
:102CA00065640A004D34323800507265686561749D
:102CB00020504C4100436F6F6C646F776E00507210
:102CC000656865617420414253004368616E6765C1
:102CD0002066696C616D656E740044697361626C35
:102CE00065207374657070657273004D38340053DD
:102CF000657420686F6D65206F6666736574730018
:102D0000426564204C6576656C696E670041757438
:102D10006F20686F6D6500473238004D6F76652013
:102D200061786973004D61696E004D6F766520585A
:102D3000004D6F76652059004D6F7665205A00452D
:102D400078747275646572004D6F766520302E312F
:102D50006D6D004D6F766520316D6D004D6F766540
:102D60002031306D6D004D6F76652061786973009C
:102D70004578747275646572004D6F7665205A00EF
:102D80004D6F76652059004D6F7665205800457867
:102D9000747275646572004D6F7665205A004D6FD0
:102DA00076652059004D6F76652058005072657029
:102DB000617265005072696E74207061757365642C
:102DC000004D31323500004D3234005072696E745E
:102DD0002061626F72746564005072696E7420665F
:102DE000726F6D2053440053746F70207072696E5F
:102DF0007400526573756D65207072696E74004E53
:102E00006F205344206361726400506175736520C4
:102E10007072696E7400436F6E74726F6C005072E2
:102E200065706172650054756E6500496E666F204D
:102E300073637265656E00426162797374657020B8
:102E40005A004D363030204230004368616E67656D
:102E50002066696C616D656E74004261627973749D
:102E60006570205A00466C6F7700466C6F7700469D
:102E7000616E20737065656420320046616E207358
:102E80007065656420320046616E2073706565640C
:102E900020320046616E2073706565642031004603
:102EA000616E20737065656420310046616E207329
:102EB0007065656420310042656400426564004EBF
:102EC0006F7A7A6C65004E6F7A7A6C650042656441
:102ED000205A00426564205A0053706565640053AF
:102EE00070656564005370656564004D61696E00CE
:102EF0007C3C3E5E2B3D3F2F5B5D3B2C2A225C00E1
:102F00002569730025696D2025697300256968208E
:102F100025696D202569730025696420256968206D
:102F200025696D202569730025697920256964204C
:102F30002569682025696D20256973004C696E65D7
:102F4000204E756D626572206973206E6F74204C1F
:102F5000617374204C696E65204E756D6265722BCD
:102F6000312C204C617374204C696E653A20004B03
:102F7000494C4C45442E200053544F505045442E4C
:102F800020005072696E7465722073746F70706582
:102F9000642064756520746F206572726F72732E81
:102FA0002046697820746865206572726F722061AE
:102FB0006E6420757365204D39393920746F207225
:102FC0006573746172742E202854656D706572612A
:102FD000747572652069732072657365742E205351
:102FE00065742069742061667465722072657374FB
:102FF000617274696E67290A004E6F2043686563C9
:103000006B73756D2077697468206C696E65206ECE
:10301000756D6265722C204C617374204C696E650D
:103020003A2000636865636B73756D206D69736D1D
:10303000617463682C204C617374204C696E653A2E
:1030400020004D313130004D333100534420726542
:103050006164206572726F720A00446F6E65207041
:1030600072696E74696E672066696C650A00204932
:103070006E76616C6964206578747275646572201F
:103080000000000000000000000000000000809828
:1030900043008098430000A043656E7175657565B7
:1030A000696E672022006563686F3A005265736538
:1030B0006E643A20006F6B0020746F6F206C6F6E2F
:1030C0006720657874727573696F6E2070726576AB
:1030D000656E7465640A0020636F6C6420657874A3
:1030E000727573696F6E2070726576656E74656453
:1030F0000A005654726176206D696E0056547261F2
:1031000076206D696E005654726176206D696E008E
:10311000566D696E00566D696E00566D696E00568B
:103120006D6178204500566D6178204500566D61CF
:1031300078204500566D6178205A00566D617820E0
:103140005A00566D6178205A00566D6178205900FA
:10315000566D6178205900566D6178205900566D82
:103160006178205800566D6178205800566D61785E
:103170002058004D6F74696F6E00416D6178204575
:1031800000416D6178204500416D6178205A004111
:103190006D6178205A00416D6178205900416D6160
:1031A00078205900416D6178205800416D61782088
:1031B0005800412D74726176656C00412D74726106
:1031C00076656C00412D7265747261637400412DE7
:1031D0007265747261637400416363656C0041637E
:1031E00063656C004D6F74696F6E0020204E6F7ABE
:1031F0007A6C653A200020004261636B004D696E75
:10320000696D756D2054656D70206973203137309C
:103210002E0048656174696E67206661696C65643B
:103220000045787472756465206D6F726500526533
:1032300073756D65207072696E7400524553554DFB
:1032400045204F5054494F4E533A0020204E6F7A3C
:103250007A6C653A20006368616E6765006F66206E
:103260007468652066696C616D656E74005761698C
:103270007420666F72207374617274005052494EEC
:1032800054205041555345440020204E6F7A7A6CAB
:10329000653A2000200066696C616D656E7420756A
:1032A0006E6C6F6164005761697420666F720050C4
:1032B00052494E542050415553454400B100AF008F
:1032C00011241FBECFEFD1E2DEBFCDBF00E00CBFA7
:1032D00014E0A0E0B2E0EAE3F2E302E00BBF02C0D8
:1032E00007900D92A830B107D9F725E1A8E0B4E026
:1032F00001C01D92A03FB207E1F719E1CFE5D9E186
:1033000000E006C021970109802FFE010F94751877
:10331000CE35D10780E00807A9F70F9490020D94ED
:103320000C190C9400002F923F924F925F926F9273
:103330007F928F929F92AF92BF92CF92DF92EF9245
:10334000FF920F931F93CF93DF93CDB7DEB7C55591
:10335000D1090FB6F894DEBF0FBECDBF81E090E07B
:1033600090939F0D80939E0D809114158D3409F4D8
:10337000A3C4843511F40C94352E873411F00C94C9
:10338000772E80911215909113158C31910509F4C7
:103390006DC194F48430910509F4EDC024F40297D2
:1033A000A0F10C94912E8A31910509F42BC14B9711
:1033B00009F42CC10C94912E8A35910509F475C33A
:1033C0004CF48D31910509F456C18A9709F4E6C38E
:1033D0000C94912E8B35910509F46BC38C359105B6
:1033E00011F00C94912E0E949763E4EA2E2EE2E0F5
:1033F0003E2EF2E9CF2EFDE0DF2EE12CF12C00E095
:1034000010E028961FAE289795C380913C02882330
:1034100011F40C94912E34EA832E32E0932E42EA7A
:10342000C42E46E0D42E5EE7E52E56E0F52E61E090
:10343000A62E60E1B62E00E010E0D4018D914D0182
:103440000E945231882371F10E941B31F801E65F1E
:10345000FB4F2081211104C020910E04222331F062
:10346000F701208131814281538103C020E030E0A7
:10347000A9010F94E5150330110559F0D5012D91DF
:103480003D914D915C912B013C01C301B2010F9420
:10349000E415462F572FBC01F60140835183628308
:1034A00073830AC0F70180819181A281B381F60103
:1034B00080839183A283B3830F5F1F4FF4E0CF0E0D
:1034C000D11C24E0E20EF11C34E0A30EB11C043048
:1034D000110509F0B2CF86E40E9481318823C9F03A
:1034E0000E941B3120E030E0A9010F9484171816C8
:1034F00084F40E941B3120E030E040E752E40F9456
:103500005F1660939C0270939D0280939E0290933D
:103510009F028091071183FD2AC06091AE067091D1
:10352000AF068091B0069091B10620918A06309145
:103530008B0640918C0650918D06E0916412EE232B
:10354000B1F00F94E4159B01AC016091561270919B
:10355000571280915812909159120F94E51560936B
:1035600056127093571280935812909359120E94DA
:10357000AEF30C94912E80E50E948131882329F0CE
:103580000E947BE96B017C0103C0C12CD12C760128
:1035900083E50E948131882361F00E941B3120E085
:1035A00030E04AE754E40F94E0110F94CC166B011D
:1035B0007C010E94976380915902811105C060E0EF
:1035C00087EC91E00E947EBA0E9462EA80918A0DA7
:1035D00090918B0DA0918C0DB0918D0DC80ED91EC0
:1035E000EA1EFB1E0E941DB2DC01CB018C199D0955
:1035F000AE09BF09B7FD02C00C94912E80E00E9475
:10360000AE96F0CF0E94DF320C94912E0E9482433E
:1036100081110C94912E80E090E0A0E2B1E48983C6
:103620009A83AB83BC8380E090E8A3E9B3E48D8305
:103630009E83AF83B88780E090E0A0EAB1E48987F9
:103640009A87AB87BC8780E50E948131882319F077
:103650000E94EB3001C060E068A3BE016F5F7F4F46
:10366000CE0180960E94D47E0C94912E80E00E9420
:1036700032600C94912E83E50E948131882321F0E1
:103680000E94FB30282F01C020E0022F10E00630FE
:10369000110570F0E9E8F2E084918F010F5F1F4F90
:1036A000882311F40C94912E0E946DEAF801F4CF56
:1036B000223009F44CC028F4222371F0213089F122
:1036C000D5C1243009F4C3C108F459C1253009F02B
:1036D000CDC10E949462CAC180916E0D882399F079
:1036E0008091730D811103C066E273E002C062E253
:1036F00073E081E692E00E942C6B8AE00E946DEA02
:103700000F94BD09B3C1E9E6F2E084917F014FEF68
:10371000E41AF40A882309F4A9C10E946DEAF701AA
:10372000F4CF0E946C7F10920102109200028091EF
:103730006D0D811103C08FE492E002C08AE592E032
:103740009093F70F8093F60F0E9438EE8FC140914F
:1037500000025091010257FF0EC0E6E2F2E08491B0
:103760008F010F5F1F4F882311F40C94912E0E943C
:103770006DEAF801F4CF4115510529F480914F020B
:10378000809309042FC08FEF840F63E00F944118DA
:1037900080FF02C0291B922F292F990F330BF901AB
:1037A000EE0FFF1FE20FF31FE80FF11D87FDFA95E3
:1037B000EE0FFF1FEE0FFF1FE35DF24F80918606B5
:1037C00090918706A0918806B091890680839183A5
:1037D000A283B3838091090480934F02493051053D
:1037E0000CF06EC0842F63E00F94411880FF03C07B
:1037F00022E0291B922F4091860650918706609106
:103800008806709189064BAF5CAF6DAF7EAF1982B1
:103810001A821B821C8240E050E060EA70E448A3F8
:1038200059A36AA37BA354E0850290011124D90116
:10383000AC5FBD4E6D01B4E09B0290011124F90113
:10384000E05FFD4E7F019E012F5F3F4FAE01405E66
:103850005F4FB601CF010E94B2EC19821A821B821F
:103860001C82BE016F5F7F4FCE01CB960E9496ED0A
:10387000F70180819181A281B38180937E0690932C
:103880007F06A0938006B0938106F6018081918126
:10389000A281B3818093820690938306A0938406CD
:1038A000B093850610926D0D10924F028091000228
:1038B0009091010201969093010280930002D6C07C
:1038C00080E090E0A0EAB0E48093860690938706BB
:1038D000A0938806B09389060E9465EC0E949763C6
:1038E0008FEF9FEF9093010280930002E2E1F2E0FC
:1038F00084917F012FEFE21AF20A882321F00E94BF
:103900006DEAF701F5CF83E992E09A83898384E633
:10391000E82EF12CF9A2E8A2BE016F5F7F4FCE0125
:1039200080960E94BEF28AEB92E09A838983F9A284
:10393000E8A2BE016F5F7F4FCE0180960E94BEF26B
:1039400081E080936E0D0E94326081E00E94F8EB6E
:1039500010928606109287061092880610928906A9
:103960000E948D31E8E1FFE1659175918591949117
:103970000E9413EC0E94976310926D0D77C088E54A
:103980000E9481318823B1F00E94EB30FF24FA9429
:10399000F60E32E03F15A8F4EBEFF1E084918F01D1
:1039A0000F5F1F4F882311F40C94912E0E946DEA33
:1039B000F801F4CF88E50E946DEA0F94710A0C9427
:1039C000912E89E50E9481318823B1F00E94EB306D
:1039D000EE24EA94E60E42E04E15A8F4E4EEF1E09F
:1039E00084918F010F5F1F4F882311F40C94912E47
:1039F0000E946DEAF801F4CF89E50E946DEA0F9408
:103A0000710A0C94912E8AE50E9481318823C1F0BD
:103A10000E941B312F2D30E0F901EE0FFF1FE20F46
:103A2000F31FEE0DF11DE7FCFA95EE0FFF1FEE0FF1
:103A3000FF1FE35DF24F608371838283938316C01F
:103A40008AE50E946DEA0F94710A0C94912E8AE522
:103A50000E9481318823A1F30E941B3160936F0D76
:103A60007093700D8093710D9093720D0150110938
:103A700002301105B0F460910002709101026A30C9
:103A8000710514F069E070E085ED91E00E94136B20
:103A900069E070E080ED91E00E94136B8AE00E9483
:103AA0006DEA0E94DEA10C94912E10920E040C94EB
:103AB000912E81E080930E040C94912E0E941B3174
:103AC0004B015C010330110559F0F701EF5FFF4E28
:103AD00020813181428153810F94E4154B015C01B7
:103AE000F701E258F94F2081318142815381C501AC
:103AF000B4010F94E4152B013C012DEB37E346E8AC
:103B000055EB0F94841787FD1DC02DEB37E346E876
:103B100055E3C301B2010F947B1118169CF00F5F9F
:103B20001F4FB4E0CB0ED11CE4E0EE0EF11C0430CC
:103B3000110559F1D1018D911D010E948131882318
:103B400071F3BCCF0330110569F480928A0690921C
:103B50008B06A0928C06B0928D06B1E02896BFAF7E
:103B60002897DDCFA3019201F601608171818281E6
:103B700093810F94E515D6016D937D938D939C935E
:103B80001397C8010E949DEDCACF2896FFAD2897D4
:103B9000FF2309F486CF0E94A24183CF80913C028B
:103BA000882311F40C94912E89E40E948131F82E1F
:103BB000882321F00E94EB30062F01C000E08AE448
:103BC0000E948131E82E882331F00E94EB30162FBD
:103BD000F11004C00AC010E0FF20B1F0033010F46F
:103BE0000C946930E0EAF2E003C01330D8F70CC05F
:103BF00084918F010F5F1F4F882311F40C94912E35
:103C00000E946DEAF801F4CF0E948D31FF2091F0FF
:103C100024E00202F0011124E05FFD4E80819181D9
:103C2000A281B3818093A2069093A306A093A406D9
:103C3000B093A506EE2091F034E01302F0011124B8
:103C4000EC5FFD4E80819181A281B3818093A606B5
:103C50009093A706A093A806B093A90680E50E94BA
:103C60008131882319F00E940C3103C080E50E9445
:103C7000523186E40E948131882309F478CC0E9475
:103C80001B316B017C0120E030E0A9010F94841707
:103C900018160CF06CCC20E030E040E752E4C7018D
:103CA000B6010F945F1660939C0270939D028093FF
:103CB0009E0290939F025BCC8091121590911315F8
:103CC0008237910509F4C0C60CF0D6C08B3491053B
:103CD00009F4FEC40CF075C08831910509F49CC24A
:103CE000E4F58231910509F4A7C6F4F497FF02C008
:103CF0000C94912E823091050CF4A4C1419711F0DF
:103D00000C94912E60E084EF92E00E947EBA5F985E
:103D10008A989FB7F894809108018E7F809308015C
:103D20009FBF12980C94912E8531910509F459C2C8
:103D30003CF4449711F00C94912EECE0F3E00EC2A9
:103D40008631910509F451C2479711F00C94912ED8
:103D5000E0911015F091111552C28E31910509F4C0
:103D6000D4C2C4F48A31910509F485C20CF473C23B
:103D70008B31910509F48DC24C9711F00C94912E62
:103D800040E060E080911015909111150E9413A6FB
:103D90000C94912E8032910509F4C5C30CF40FC424
:103DA0008A32910509F437C4C19711F00C94912E11
:103DB000F090080481E0F826F0920804E6EAF3E0C7
:103DC0006AC48836910509F495C45CF5823591057D
:103DD00009F429C69CF48D34910509F483C40CF4CC
:103DE0007BC48E34910509F481C48135910511F0AD
:103DF0000C94912E0E94E95B0C94912E84359105D0
:103E000009F41AC60CF413C68535910509F418C6D1
:103E10008C35910511F00C94912E0E94BBA20C944C
:103E2000912E8D36910509F4AAC59CF48A36910528
:103E300009F4C5C50CF45FC58B36910509F4EBC5D3
:103E40008C36910511F00C94912E109250020C9426
:103E5000912E8F36910509F4B7C40CF4A2C48037B3
:103E6000910509F422C58137910511F00C94912E2A
:103E70000E94FF5B0C94912E8C3D910511F40C94E3
:103E8000D3280CF060C08139910509F4BCC624F533
:103E90008737910509F426C67CF48537910509F426
:103EA000D9C50CF0E0C58337910511F00C94912E23
:103EB0000E9497A10C94912E8937910509F49DC613
:103EC0000CF494C68D37910509F4A9C58C38910579
:103ED00009F4F3C40C94912E8B3C910509F46CC742
:103EE000F4F48E3B910509F44EC534F48B399105F9
:103EF00009F41EC50C94912E883C910509F4FCC66A
:103F0000893C910511F00C94912EB7ECEB2EB5E1A4
:103F1000FB2E04EA12E084E0D82ED00E34C78D3C8C
:103F2000910509F4D1C70CF465C78E3C910511F4D5
:103F30000C94CF27833D910511F00C94912EE6EA65
:103F4000F0E30C94F5278A3941E0940709F4B1C4F1
:103F5000CCF58D32A1E09A0711F40C947D29D4F4AC
:103F6000823E910511F40C9424293CF48D3D910579
:103F700011F40C94E0280C94912E8232E1E09E071B
:103F800011F40C944B298C32914011F40C94562965
:103F90000C94912E8F3221E0920711F40C94642A34
:103FA00014F40C94142A833641E0940711F40C9411
:103FB0000A2E8039914011F00C94912E0E94976343
:103FC0000C94912E853FA1E09A0711F40C94F72CE4
:103FD000ECF4853AE1E09E0711F40C94382B3CF4A4
:103FE000843A914011F40C94672A0C94912E8C3AE7
:103FF00031E0930711F40C940E2C843F914011F0A2
:104000000C94912E0E9457470C94912E883552E0C3
:10401000950711F40C94FA2C4CF4863F914011F062
:104020000C94912E0E9429800C94912E803AE3E00A
:104030009E0709F4B7C2873E934011F40C94232ED7
:104040000C94912EA0901015B090111580E50E944F
:104050008131882359F00E947BE96B017C0111E0DA
:10406000672B682B692B31F410E004C010E0C12CE1
:10407000D12C760183E50E9481318823F1F00E94E2
:104080001B3120E030E04AE754E40F94E0110F9434
:10409000CC166B017C01111112C0672B682B692BA8
:1040A00071F4A114B10459F0D5018C91882339F031
:1040B00061E0C5010E949CBA07C0112391F360E042
:1040C00081EE92E00E947EBA83E090E090939F0D93
:1040D00080939E0D81E080935C100E9497630E9404
:1040E00062EAC114D104E104F104F1F080918A0D77
:1040F00090918B0DA0918C0DB0918D0DC80ED91E95
:10410000EA1EFB1E0E941DB2DC01CB018C199D0929
:10411000AE09BF09B7FF1EC080915C108823D1F0A3
:1041200080E00E94AE96EECF80915C10882321F053
:1041300080E00E94AE96F8CF80913C1290913D12A3
:1041400060E0029719F48EEC92E002C08FEB92E0EF
:104150000E947EBA10925C100C94912E84918F0173
:104160000F5F1F4F882321F00E946DEAF801F6CF00
:104170001092ED141092EC1440E050E0BA0188E97E
:1041800092E10E94AD4E8BE1E8E9F2E1DE01159685
:1041900001900D928A95E1F7809196129091971275
:1041A0009C838B838EE093E09A83898340E050E088
:1041B000BE016F5F7F4F8AEB93E00E94C9A3CE01DF
:1041C00001960E942D96EDEFF2E084918F010F5F32
:1041D0001F4F882311F40C94912E0E946DEAF80170
:1041E000F4CF0E94BD3F0C94912E10926712109252
:1041F00068120C94912E803209F4108231968081DD
:104200008111F9CF40E061E0809110159091111576
:104210000E9413A60C94912E19821A821B821C8272
:1042200018A219A21AA21BA28091A00D882341F006
:1042300040E0BE016F5F7F4FCE0180960E943A9BA7
:1042400080916812882319F081E0809367120E94A0
:104250002B440C94912E109267128CE392E10E94F1
:104260009AC58DE193E09093F70F8093F60F0E942B
:1042700038EE0C94912E80916812882311F40C94DE
:10428000912E83E50E94813181110C94982E0C941B
:10429000912E80916812882351F1E2E2F3E084913B
:1042A0008F010F5F1F4F882321F00E946DEAF801F4
:1042B000F6CF6091E3147091E4148091E51490912D
:1042C000E6144AE00E9474EA8FE20E946DEA60916F
:1042D000DF147091E0148091E1149091E2144AE0AF
:1042E0000E9474EA8AE00E946DEA0C94912EE4E345
:1042F000F3E084918F010F5F1F4F882311F40C941A
:10430000912E0E946DEAF801F4CF80916812882303
:1043100011F40C94912E82E394E10E947B4E82E38F
:1043200094E10E9469E01092661210926512E0908A
:104330001015F090111580916812882311F40C94D7
:10434000912E0E9408A61D8218861C821B828EE078
:1043500093E09A83898384E992E19093B4128093E5
:10436000B312F70180818F3209F068C06FE270E00C
:10437000C7010F94C9188C010F5F1F4F9E012F5F5B
:104380003F4F49010115110509F45EC06FE270E06D
:10439000C8010F94C9186C01009709F456C008179A
:1043A000190708F052C05C01A01AB10AA501B801B2
:1043B000CE0180960F94F218E0E2F0E0EC0FFD1FC2
:1043C000EA0DFB1D10828E01005E1F4FD8018D91FA
:1043D0008D01882319F00E946DEAF8CF8AE00E94CF
:1043E0006DEA6091B3127091B4126115710511F00C
:1043F0006C5F7F4F21E0AE01405E5F4FCE010596BE
:104400000E9490E4811112C0BE01605E7F4F8BE676
:1044100093E00E942C6B8EE20E946DEA8AE00E947B
:104420006DEAC4010E942D960C94912E9092B412C4
:104430008092B31286010F5F1F4FA4CF85EB92E1EC
:104440009093B4128093B31287016091B31270916C
:10445000B4126115710511F06C5F7F4F18A21BA299
:1044600022E0A801CE0180960E9490E4811102C052
:10447000F12C14C0CE0180960E941AF38823C1F358
:1044800061E0CE0180960E9472E0009789F325EEEC
:10449000FC0120831BA20E948C4CF82ECE0180963A
:1044A0000E944BEAFF2009F1E5E4F3E084917F01EB
:1044B0002FEFE21AF20A882321F00E946DEAF70139
:1044C000F5CFD8018D918D01882319F00E946DEAF6
:1044D000F8CF8AE00E946DEA1092E3141092E4147F
:1044E0001092E5141092E61418C0E3E5F3E084910D
:1044F0007F01BFEFEB1AFB0A882321F00E946DEACF
:10450000F701F5CFF80181918F01882319F00E94FE
:104510006DEAF8CF8EE20E946DEACE0101960E940C
:104520002D960C94912E8091671281110E949763B1
:1045300080916812882311F40C94912E80E50E94DA
:104540008131882319F00E940C3103C080E50E945C
:104550005231182F482F61E080911015909111155C
:104560000E9413A683E50E948131882381F00E9476
:10457000EB30AB01BC014093E3145093E41460931F
:10458000E5147093E61482E394E10E94AD4E8091AD
:104590006812882319F081E08093671211110C943E
:1045A000912E55CE809110159091111521E02093F8
:1045B000661240E060E00E9413A60C94912E8CE3FA
:1045C00092E10E946DC568A379A38AA39BA3BE0153
:1045D0006F5F7F4FCE0180960E948BE960E0CE0135
:1045E00001960E949CBAE6EAF0E384918F010F5F86
:1045F0001F4F882321F00E946DEAF801F6CFBE011B
:104600006F5F7F4F8FE793E00E942C6B8AE00E94E0
:104610006DEA0C94912E83E50E948131882311F478
:104620000C94912E0E94FB30E82E80E50E9481318F
:10463000882341F00E94EB308B0177FF02C00C947D
:10464000912E02C00DE010E0902FE4E2F5E088E248
:104650008E0F2491921729F031968E13FACF0C9475
:10466000A82EE1ECF3E284918F010F5F1F4F8823A6
:1046700021F00E946DEAF801F6CFECE8F3E08491B6
:104680008F010F5F1F4F882311F40C94912E0E940D
:104690006DEAF801F4CF84918F010F5F1F4F8823DB
:1046A00021F00E946DEAF801F6CFF11003C0E0EAB4
:1046B000F3E002C0EBE9F3E084918F010F5F1F4F3D
:1046C000882311F40C94912E0E946DEAF801F4CF26
:1046D0000E942B440C94912E8CE392E10E949AC587
:1046E0000C94912E0E946BF10C94912E0E94065E08
:1046F0000C94912E88E690E00E94DEED81110C94DE
:10470000912E8091071183FF02C00C94912E83E5B6
:104710000E948131882309F440C00E941B310F940C
:10472000C716709347066093460680E00E9450BF0C
:104730000E941B3120E030E04AEA52E40F947B11E2
:1047400018163CF00E946BF160E088EB93E00E9449
:104750007EBA0E941B312091E6103091E710409103
:10476000E8105091E9100F9484171816B4F48DE3F3
:1047700093E09F938F938091F60B90E001969F9327
:104780008F9381EB93E09F938F931F920E946743D7
:104790000FB6F894DEBF0FBECDBF0E94776B0C94AE
:1047A000912E8EE40E948131882311F40C94912E75
:1047B0000E94EB306093B4067093B5068093B60602
:1047C0009093B7060C94912E83E50E945231882372
:1047D00059F083E50E948131882319F00E94FB3053
:1047E00001C080E080930711E6EAF0E384918F0135
:1047F0000F5F1F4F882321F00E946DEAF801F6CF6A
:10480000E9EDF3E084918F010F5F1F4F882321F0C2
:104810000E946DEAF801F6CF809107118823A1F17B
:104820007BECC72E73E0D72EE12CF12C20E0809199
:10483000071190E00E2C02C0959587950A94E2F737
:1048400080FF17C0BB24B394B20E222319F08CE270
:104850000E946DEAF60125913491F9018491890154
:104860000F5F1F4F882321F00E946DEA9801F5CF5A
:104870002B2DFFEFEF1AFF0A32E0C30ED11C45E0EB
:10488000E416F104A1F60CC0E5EDF3E084918F018C
:104890000F5F1F4F882321F00E946DEAF801F6CFC9
:1048A0008AE00E946DEA0C94912E80EE93E00E94C3
:1048B00046960E948F9C0C94912E8091071183FF45
:1048C00002C00C94912E83E50E948131882311F45B
:1048D0000C94912E0E941B310F94C71664377105FA
:1048E00014F063E770E070934506609344060E94FD
:1048F00005BF0C94912E89E690E00E94DEED8111B7
:1049000011C0E9EEF3E084918F010F5F1F4F882300
:1049100021F00E946DEAF801F6CF0E940F728AE042
:104920000E946DEA10929F0D10929E0D0C9498308B
:1049300083E50E948131882311F40C94912E0E940A
:10494000FB30182F8D3308F01CE31093870D0E9465
:104950001DB26B017C01212F30E0A8EEB3E00F9473
:10496000D515C60ED71EE81EF91EC092830DD09233
:10497000840DE092850DF092860D0C94912E0E948C
:10498000295C0C94912E8091071183FF02C00C9436
:10499000912E60E08AEF93E00E947EBA83E50E9448
:1049A00081312E968FAF2E9781110C94C52E82E502
:1049B0000E94813181110C94C52E0C94912E80E5BA
:1049C0000E948131882341F00E94FB30182F8230F1
:1049D00010F00C94912E01C010E083E50E9481310B
:1049E000882329F00E94EB30362F272F02C03FEF9B
:1049F00020E0E12FF0E0EE0FFF1FE85BF94F832F7F
:104A0000922F8F3F910519F010F08FEF90E0918376
:104A100080830C94912E0E94F15D0C94912E0E9443
:104A20000BA10C94912E10920D040C94912E81E008
:104A300080930D040C94912E0E9471A30C94912EDE
:104A40000E9459A30C94912E0E9497630E94DEA1AC
:104A50000C94912E60E080911015909111150E9498
:104A60009CBA0C94912E85E40E948131882319F020
:104A70000E940C3103C085E40E945231882361F00A
:104A8000E6EAF0E384918F010F5F1F4F882321F046
:104A90000E946DEAF801F6CF81E40E9481318823FB
:104AA00019F00E940C3103C081E40E945231882326
:104AB00061F0E7E0F4E084918F010F5F1F4F8823DE
:104AC00021F00E946DEAF801F6CF009110151091C7
:104AD0001115D8018D918D01882309F4E1CE0E9432
:104AE0006DEAF7CFEEE2F4E084918F010F5F1F4F84
:104AF000882321F00E946DEAF801F6CFE6E2F4E0A7
:104B000084918F010F5F1F4F882321F00E946DEA6F
:104B1000F801F6CF659B03C00AE213E002C00FE282
:104B200013E0F80181918F01882319F00E946DEA4A
:104B3000F8CF8AE00E946DEAEEE1F4E084918F0103
:104B40000F5F1F4F882321F00E946DEAF801F6CF16
:104B50008091030181FF03C00AE213E002C00FE26B
:104B600013E0D8018D918D01882319F00E946DEA20
:104B7000F8CF8AE00E946DEAE6E1F4E084918F01CB
:104B80000F5F1F4F882321F00E946DEAF801F6CFD6
:104B90004B9B03C00AE213E002C00FE213E0F801EE
:104BA00081918F01882319F00E946DEAF8CF8AE085
:104BB0000E946DEAEBE0F4E084918F010F5F1F4FDC
:104BC000882321F00E946DEAF801F6CF959903C081
:104BD0000AE213E002C00FE213E0D8018D918D01CB
:104BE000882309F45DCE0E946DEAF7CF81E08093BF
:104BF0001D1280931C120C94912E10921D12109273
:104C00001C120C94912E83E50E948131882319F0A7
:104C10000E94EB3002C060E070E08B01112702308F
:104C20001105D4F0E1ECF3E284918F010F5F1F4F87
:104C3000882321F00E946DEAF801F6CFE8E4F4E061
:104C400084918F010F5F1F4F882311F40C94912ED4
:104C50000E946DEAF801F4CF88E40E948131882334
:104C6000A1F00E94EB306A3A710534F0663F71059D
:104C70002CF065EF70E002C06AEA70E0F801EE0F18
:104C8000FF1FE45FF24F7183608386E40E948131ED
:104C90008823A9F00E94EB30F801EE0FFF1FE05FC0
:104CA000F24F718360836F3F710519F014F06FEF5D
:104CB00070E077FF02C060E070E07183608382E49F
:104CC0000E948131882311F40C94912E0E94EB30C4
:104CD0006530710534F0653671052CF064E670E0DE
:104CE00002C065E070E0000F111FF801E85FF24FAD
:104CF000718360830C94912E88EC90E00E94DEED2D
:104D000081110C94912E84E40E9452318823C1F1C8
:104D10000E941B3111E020E030E0A9010F947B11CB
:104D2000811101C010E01093670D112349F10E9419
:104D30001B31E091F60BB4E0EB9FF0011124ED592B
:104D4000F24F608371838283938320E030E0A90176
:104D50006091630D7091640D8091650D9091660D69
:104D60000F947B1181110CC080E090E0A0EEBFE3B6
:104D70008093630D9093640DA093650DB093660DC1
:104D80000E94DCC5CEC7F80181918F010E9452318B
:104D9000882351F00E941B310F94CC16D7016D93DC
:104DA0007D938D939C931397B4E0EB0EF11CD0127E
:104DB000EACF0E94A76BB5C7F7EBEF2EF5E1FF2E08
:104DC00004EA12E0A4E0DA2ED00EF80181918F01FE
:104DD0000E945231882341F00E941B31D7016D930C
:104DE0007D938D939C931397B4E0EB0EF11CD0123E
:104DF000ECCF97C783E50E9452318823D9F00E94F7
:104E00001B31AB01BC014093DF155093E01560935B
:104E1000E1157093E2154093D7155093D815609320
:104E2000D9157093DA1584EC94E00E94F66A8AE052
:104E30000E946DEA80E50E945231882399F00E9419
:104E40001B31AB01BC014093DF155093E01560931B
:104E5000E1157093E21587EA94E00E94F66A8AE011
:104E60000E946DEA82E50E945231882399F00E94E7
:104E70001B31AB01BC014093DB155093DC156093F3
:104E8000DD157093DE1588E894E00E94F66A8AE0EA
:104E90000E946DEA84E50E945231882309F441C7DB
:104EA0000E941B31AB01BC014093D7155093D8151C
:104EB0006093D9157093DA158AE694E00E94F66A39
:104EC0008AE00E946DEA2DC783E50E945231882353
:104ED00051F00E941B316093B3157093B415809309
:104EE000B5159093B61584E50E945231882351F090
:104EF0000E941B316093AF157093B0158093B1156C
:104F00009093B21582E40E945231882351F00E949E
:104F10007BE96093DD107093DE108093DF10909337
:104F2000E01088E50E945231882351F00E941B3125
:104F30006093530D7093540D8093550D9093560DBF
:104F400089E50E945231882351F00E941B31609301
:104F5000570D7093580D8093590D90935A0D8AE513
:104F60000E945231882351F00E941B3160935B0DE7
:104F700070935C0D80935D0D90935E0D85E40E94AF
:104F80005231882309F4CDC60E941B3160935F0D16
:104F90007093600D8093610D9093620DC2C674EAA8
:104FA000C72E72E0D72EE5E9EE2EE4E0FE2E00E0FB
:104FB00010E0F60181916F010E945231882359F06F
:104FC0000E941B31D7016D937D938D939C93139712
:104FD000C8010E949DED0F5F1F4FB4E0EB0EF11C66
:104FE0000330110531F70C94511D84918F010F5F2F
:104FF0001F4F882321F00E946DEAF801F6CF83E568
:105000000E945231882321F00E940C3180934F027C
:10501000E4E1F5E084918F010F5F1F4F882321F0B9
:105020000E946DEAF801F6CF80914F02811103C012
:10503000E0E1F5E002C0ECE0F5E084918F010F5F64
:105040001F4F882321F00E946DEAF801F6CFE4E0BB
:10505000F5E084918F010F5F1F4F882321F00E949C
:105060006DEAF801F6CF20910110309102104091C5
:105070000310509104106091EB107091EC1080912E
:10508000ED109091EE100F94E515AB01BC0182E09C
:1050900095E00E94F66A209105103091061040912B
:1050A0000710509108106091EF107091F0108091EE
:1050B000F1109091F2100F94E515AB01BC018FEF48
:1050C00094E00E94F66A2091091030910A104091F4
:1050D0000B1050910C106091F3107091F4108091AE
:1050E000F5109091F6100F94E515AB01BC018CEF13
:1050F00094E00E94F66AE4EFF4E084918F010F5F80
:105100001F4F882321F00E946DEAF801F6CF20910D
:1051100001103091021040910310509104106091E1
:1051200043027091440280914502909146020F948F
:10513000E515AB01BC0182EF94E00E94F66A209174
:1051400005103091061040910710509108106091A1
:105150004702709148028091490290914A020F944F
:10516000E515AB01BC018FEE94E00E94F66A209138
:10517000091030910A1040910B1050910C10609161
:105180004B0270914C0280914D0290914E020F940F
:10519000E515AB01BC018CEE94E00E94F66A8AE052
:1051A0000E946DEABEC583E50E948131882309F41F
:1051B000B8C50E94EB307093580260935702B1C596
:1051C0008DED90E00E94DEED8111ABC583E50E947C
:1051D0008131882309F4A5C50091F60B10E0FBD7B7
:1051E000000F111FF801EB5AFD4F7183608380910E
:1051F000F60B90E07C01EE0CFF1CEE0CFF1C87010F
:105200000F5A1D4F880F991FFC01EB5AFD4F60810B
:105210007181072E000C880B990B0F9481112AE0E5
:1052200037ED43E25CE30F94E011F701E85FFE4ED7
:1052300020813181428153810F94E011F801608314
:105240007183828393836DC580E50E9452318823E8
:1052500009F467C5C0D76B017C0183E50E948131E9
:10526000882319F0B8D78B0102C00FEF1FEFC801D8
:105270000196039708F055C5D7FC53C59C2DE4E271
:10528000F5E088E28E0F2491921709F44AC5319611
:105290008E13F9CF24C78AE50E9481318111E0C6BF
:1052A00083E50E9481318111DBC63BC583E50E9405
:1052B0008131882311F08FD702C064E071E079A3B7
:1052C00068A380E50E948131882331F084D7693852
:1052D000F3E17F0730F402C068EE73E07A836983FC
:1052E00004C088E893E19A838983BE01605E7F4FA2
:1052F000CE0101960E94BEF214C585E40E94813160
:1053000081110EC080E5CED7882381F094D76093B9
:10531000FB0C7093FC0C8093FD0C9093FE0C06C06C
:105320006AD7882379F3E1ECF3E26DC089E4BAD758
:10533000882379F080D72CEA35EC47E25EE30F94BE
:10534000E0116093030D7093040D8093050D90930D
:10535000060D84E4A7D7882379F06DD72CEA35ECC5
:1053600047E25EE30F945F166093FF0C7093000DAD
:105370008093010D9093020DE6EAF0E384918F0192
:105380000F5F1F4F882321F00E946DEAF801F6CFCE
:105390004091FB0C5091FC0C6091FD0C7091FE0C47
:1053A00084E595E00E94F66A2CEA35EC47E25EE37C
:1053B0006091030D7091040D8091050D9091060D83
:1053C0000F945F16AB01BC0180E595E00F94810A54
:1053D0002CEA35EC47E25EE36091FF0C7091000D22
:1053E0008091010D9091020D0F94E011AB01BC0171
:1053F0008CE495E00F94810A8AE00E946DEA91C4E2
:105400000E946DEAF80184918F010F5F1F4F811197
:10541000F7CF08E413E0D8018D918D01882309F4BA
:105420003FCA0E946DEAF7CF83E53CD7182F882347
:1054300069F001D70F94C71670934202609341023E
:1054400021E0672B09F020E02093EA1080E52AD7BD
:10545000882351F02091410230914202232B09F020
:10546000DBD68093EA105DC411115BC4E6EAF0E379
:1054700084918F010F5F1F4F882321F00E946DEAF6
:10548000F801F6CF8091EA10811103C069E373E05F
:1054900002C06CE273E08DE695E00E942C6B609197
:1054A0004102709142028CE595E00E94136BE8E5A1
:1054B000F5E084918F010F5F1F4F882309F431C4F9
:1054C0000E946DEAF801F5CF0E94D09C2AC4809119
:1054D0007E0690917F06A0918006B0918106898317
:1054E0009A83AB83BC838091820690918306A091BE
:1054F0008406B09185068D839E83AF83B8878091A3
:10550000860690918706A0918806B09189068987C2
:105510009A87AB87BC8786E5C5D6882391F08091B2
:105520006E0D882371F0EFEBF5E084918F010F5F32
:105530001F4F882321F00E946DEAF801F6CF0F94E7
:10554000BD098AE5AFD6882321F075D640E00E94D8
:10555000A06283E5A7D6882329F05ED6182F0E9483
:10556000F8EB01C010E0F090730D111103C0E6EAF2
:10557000F0E31AC0F110FBCFE1ECF3E284918F016C
:105580000F5F1F4F882321F00E946DEAF801F6CFCC
:10559000E0EAF5E084918F010F5F1F4F882339F314
:1055A0000E946DEAF801F6CF84918F010F5F1F4FC3
:1055B000882321F00E946DEAF801F6CFF11003C0B4
:1055C00066E273E002C062E273E082E995E00E9465
:1055D0002C6B8AE00E946DEAE6EAF0E384918F0189
:1055E0000F5F1F4F882321F00E946DEAF801F6CF6C
:1055F000E5E8F5E084918F010F5F1F4F882321F0CC
:105600000E946DEAF801F6CFC090740DD090750D30
:10561000E090760DF090770D20E030E0A901C70111
:10562000B6010F94841718164CF442E0C701B60176
:105630000E94F4EA8AE00E946DEA0CC0E0E8F5E01E
:1056400084918F010F5F1F4F882321F00E946DEA24
:10565000F801F6CF4CE050E06EE776E0CE0101961F
:105660000F949518892B09F45CC30E94DEA159C3DD
:1056700088E518D6B82E89E415D6A82E882311F00F
:10568000AAD519C0BB20C9F0D6D520E030E040E251
:1056900051E40F94E41520E030E04EE852E40F941A
:1056A000E51524EB32EC46EE5BE30F94E0110F942A
:1056B000C716633010F4F62E02C0FF24FA9489E571
:1056C000F1D5E82E8AE4EED5182F882311F083D582
:1056D00019C0EE20C9F0AFD520E030E040E251E43F
:1056E0000F94E41520E030E04EE852E40F94E51505
:1056F00024EB32EC46EE5BE30F94E0110F94C716F7
:10570000633010F4062F01C00FEF8AE5CBD5C82E09
:10571000811104C081E5C6D5D82E01C0D12CA110BD
:1057200001C010E0212F30E0B11002C090E001C0B4
:105730009E2D290F311D2130310519F0E1ECF3E2E6
:1057400005C0C1101AC0D11018C0F8CF84918F01C4
:105750000F5F1F4F882321F00E946DEAF801F6CFFA
:10576000E4EFF5E084918F010F5F1F4F882309F468
:10577000D8C20E946DEAF801F5CFF7FE03C0E1EC54
:10578000F3E206C007FF17C0FACF0E946DEAF801E6
:1057900084918F010F5F1F4F8111F7CFE5EDF5E089
:1057A00084918F010F5F1F4F882309F4BAC20E94B2
:1057B0006DEAF801F5CF3FD5A02F000FBB0B0F2DE1
:1057C000FF0C110BDD2091F0F801EE0FFF1FE00F31
:1057D000F11FEA0FFB1FEE0FFF1FEE0FFF1FE35D30
:1057E000F24F208131814281538103C020E030E0BB
:1057F000A901F801EE0FFF1F0E0F1F1F0A0F1B1F3D
:10580000000F111F000F111F035D124F0F94E515BC
:10581000F801608371838283938383C20E948243F1
:1058200081117FC294E0892E9FE1992E2EE736E008
:1058300029963FAF2EAF2997AE014F5F5F4F5A01B8
:105840000DE51FE11A0153E0500F2A965FAF2A972A
:10585000F40165917591859194912996AEADBFAD96
:105860002997CD90DD90ED90FD902996BFAFAEAF1A
:105870002997A70196010F94E4152B013C0120E024
:1058800030E040EA51EC0F94841787FD10C020E00F
:1058900030E040EA51E4C301B2010F947B111816C5
:1058A00034F0F10140825182628273820DC0F801AE
:1058B00084911816B4F7F7FAF094F7F8F094F10120
:1058C000C082D182E282F382D101CD90DD90ED9051
:1058D000FD901D0120E030E040EA51ECC701B60127
:1058E0000F94841787FF03C0E1ECF3E20BC020E0C4
:1058F00030E040EA51E4C701B6010F947B1118165D
:1059000074F5F2CF84918F010F5F1F4F882321F030
:105910000E946DEAF801F6CFE2E3F6E084918F0190
:105920000F5F1F4F882321F00E946DEAF801F6CF28
:1059300061E084E296E00E947EBA0E94B16F88E244
:1059400090E099A388A388EC90E09CAF8BAFBE0158
:10595000605E7F4FCE01CB960E94BEF2E2C1B4E002
:105960008B0E911C0F5F1F4F2A96EFAD2A97E01305
:105970006FCF85E9E82E84E0F82E00E010E0F50115
:1059800081919191A191B1915F01F70181939193DF
:10599000A193B1937F01C8010E949DED0F5F1F4F3E
:1059A0000330110561F70E94DEA160E084E196E01A
:1059B0000E947EBA83E992E09CAF8BAF04E610E0D0
:1059C00019A308A3BE01655C7F4FCE0180960E949B
:1059D000BEF28AEB92E09CAF8BAF19A308A3BE0185
:1059E000655C7F4FCE0180960E94BEF29AC10E94F4
:1059F0004A8197C180E090E0A0E2B1E489839A8374
:105A0000AB83BC8380E090E8A3E9B3E48D839E83FD
:105A1000AF83B88780E090E0A0EAB1E489879A87F5
:105A2000AB87BC870E948243882319F081E00E94E3
:105A3000326085E437D4882311F0FDD304C060E0E0
:105A400070E080E090EC27966CAF7DAF8EAF9FAF9B
:105A500027978AE556D4882369F08AE552D48823AB
:105A600011F0E9D303C060E070E0CB0169877A8769
:105A70008B879C8788E545D4882369F088E541D4E5
:105A8000882311F0D8D303C060E070E0CB016983B4
:105A90007A838B839C8389E534D4882369F089E5F4
:105AA00030D4882311F0C7D303C060E070E0CB018D
:105AB0006D837E838F83988785E5F4D3882311F0E7
:105AC000BAD304C060E070E088EC92EC23966CAF2F
:105AD0007DAF8EAF9FAF23978CE4E4D3882311F082
